:100000000C9490000C94B8000C94B8000C94B800B8
:100010000C94B8000C94B8000C94B8000C94B80080
:100020000C94B8000C94B8000C9464030C94D603A0
:100030000C94B8000C94B8000C94B8000C94B80060
:100040000C94B8000C94B8000C94B8000C94B80050
:100050000C94B8000C94B8000C94B8000C9492075F
:100060000C94B8000C94B8000C94B8000C94B80030
:100070000C94B8000C94B8000C94B8000C94B80020
:100080000C94B8000C94B8000C94B8000C94B80010
:100090000C94B8000C94B8000C94B8000C94B80000
:1000A0000C94B8000C94B8000C94B800080B000233
:1000B0000202010009040000010202000005240000
:1000C0001001052401010104240206052406000193
:1000D0000705810310004009040100020A00000026
:1000E00007050202400000070583024000000403E8
:1000F000090412010002EF02014041234180000186
:100100000102030141726475696E6F204C4C43001B
:1001100041726475696E6F2059756E006D0C440CE8
:1001200011241FBECFEFDAE0DEBFCDBF23E0AEEE7D
:10013000B1E001C01D92A03AB207E1F711E0A0E0E2
:10014000B1E0E0E2FFE102C005900D92AE3EB107E2
:10015000D9F710E0CFE8D0E004C02197FE010E945B
:10016000680DCE38D107C9F70E94200A0C94830F7E
:100170000C9400004091F0015091F1012091EE01AA
:100180003091EF0142175307B4F49091E800957055
:10019000E1F39091E80092FD19C08093F100809105
:1001A000F0019091F10101968F739927892B19F431
:1001B0008EEF8093E8008091F0019091F10101961B
:1001C0009093F1018093F00181E0089580E008951B
:1001D000CF92DF92EF92FF920F931F93CF93DF9313
:1001E0001F92CDB7DEB7182F062FE42E862F880F6B
:1001F0008E5F99830E94BA0083E00E94BA00F12EBC
:10020000C12E9981D92E8C2D8F19801798F4F60163
:10021000E7FE02C0849101C080810E94BA00182FBD
:1002200080E00E94BA008123FFEFCF1ADF0A81111C
:10023000EACF01C081E00F90DF91CF911F910F9124
:10024000FF90EF90DF90CF900895DF92EF92FF92B2
:100250000F931F93CF93DF93D82E8A017B01E40E77
:10026000F51EEB01CE15DF0571F0D7FE03C0FE01D0
:10027000849101C088810E94BA0021968111F2CF39
:100280008FEF9FEF01C0C801DF91CF911F910F91B8
:10029000FF90EF90DF900895615030F02091F100D1
:1002A000FC0120830196F8CF289884E68093F6011C
:1002B0000895CF92DF92EF92FF920F931F93CF9307
:1002C000DF936C017A018B01C0E0D0E0CE15DF0531
:1002D00089F0D8016D918D01D601ED91FC910190CD
:1002E000F081E02DC6010995892B11F47E0102C031
:1002F0002196ECCFC701DF91CF911F910F91FF9015
:10030000EF90DF90CF900895CF93DF931F92CDB7FA
:10031000DEB76983DC01ED91FC910280F381E02D71
:1003200041E050E0BE016F5F7F4F09950F90DF9174
:10033000CF91089583E08093E9008091F2008823B3
:1003400019F08AE38093E8000895FC01848595857F
:1003500097FD0BC09FB7F89482E08093E9008091ED
:10036000F2009FBF90E0019608959FB7F89482E055
:100370008093E9008091F2009FBF90E00895089576
:1003800080E090E008950F931F93CF93DF931F9227
:10039000CDB7DEB782E0898342E450E06CEA70E0DA
:1003A00080E80E9425010E944407DC0112960D910D
:1003B0001C9113970115110569F0D801ED91FC917D
:1003C0000280F381E02DBE016F5F7F4FC801099568
:1003D00097FF07C089810F90DF91CF911F910F91F7
:1003E0000895F80100851185E5CF8DE391E00C9427
:1003F000980685E591E00C94980683E691E00C94CC
:100400009806AF92BF92CF92DF92EF92FF920F9336
:100410001F93CF93DF93CDB7DEB727970FB6F8942E
:10042000DEBF0FBECDBF7C015A01CE0101962F83E6
:100430000E9496088BE391E0F701819391936F01FD
:100440006CEE71E0CF010E945309BE016F5F7F4FD8
:10045000C6010E947A08F701B186A0862F81228703
:10046000238715870487CE0101960E9491088CE1AD
:1004700091E0F7019183808327960FB6F894DEBF51
:100480000FBECDBFDF91CF911F910F91FF90EF90E5
:10049000DF90CF90BF90AF900895AF92BF92CF9270
:1004A000DF92EF92FF920F931F93CF93DF93CDB71D
:1004B000DEB727970FB6F894DEBF0FBECDBF7C0125
:1004C0005A01CE0101962F830E9496088BE391E09A
:1004D000F701819391936F016CEE71E0CF010E945F
:1004E0005309BE016F5F7F4FC6010E947A08F70172
:1004F000B186A0862F812287238715870487CE01A6
:1005000001960E94910886E191E0F7019183808332
:1005100027960FB6F894DEBF0FBECDBFDF91CF9107
:100520001F910F91FF90EF90DF90CF90BF90AF9011
:1005300008958F929F92AF92BF92CF92DF92EF92E7
:10054000FF920F931F93CF93DF935C016B017A01AE
:1005500080910B01882309F45BC08091F701882307
:1005600009F456C08091F40180FF05C08091E0003D
:1005700082608093E000E70110E00AEF83E0882EBC
:100580009AE3992E2097D9F10E94330781110AC06E
:10059000015009F43DC061E070E080E090E00E940D
:1005A0005807F0CF282F30E0C217D3070CF48C2F58
:1005B0004FB7F8948092E9009091E80095FF1DC034
:1005C000282F30E0C21BD30BF601982F915020F05A
:1005D00081918093F100FACFC20ED31E112319F03E
:1005E0009092E80009C08091E80085FD06C09092D5
:1005F000E80011E0209709F010E04FBFC3CF1111C0
:10060000C3CF5D9884E68093F5011E141F0444F067
:1006100081E090E0F5019383828380E090E001C067
:10062000C701DF91CF911F910F91FF90EF90DF9065
:10063000CF90BF90AF909F908F9008950E94330706
:1006400090E00895CF93DF931F92CDB7DEB7FC0102
:100650008485958597FD05C02FEF3FEF358724876B
:100660000BC0CE0101960E940907019719F48981F8
:1006700090E002C08FEF9FEF0F90DF91CF91089530
:100680000F931F93CF93DF931F92CDB7DEB78C01EB
:10069000FC018485958597FF0EC0CE0101960E94CE
:1006A0000907019719F4298130E002C02FEF3FEFCD
:1006B000F80135872487F801848595850F90DF91AF
:1006C000CF911F910F9108951F920F920FB60F9225
:1006D00011248F939F938091E1009091E100937F8B
:1006E0009093E10083FF0FC01092E90091E0909396
:1006F000EB001092EC0092E39093ED001092F70162
:1007000098E09093F00082FF20C093E09093E9007E
:100710009091F200992319F09AE39093E800909158
:10072000F501992339F09091F50191509093F501DD
:10073000992389F19091F601992339F09091F6016E
:1007400091509093F601992341F184FF10C080915C
:10075000E2008E7E81608093E2008091E1008F7ED6
:100760008093E1008091F4018E7E806111C080FF52
:1007700016C08091E2008E7E80618093E2008091BD
:10078000E1008E7E8093E1008091F4018E7E816095
:100790008093F40104C05D9ACDCF289AD6CF9F9163
:1007A0008F910F900FBE0F901F9018951F920F9270
:1007B0000FB60F921124CF92DF92EF92FF920F9318
:1007C0001F932F933F934F935F936F937F938F93D9
:1007D0009F93AF93BF93EF93FF93CF93DF93CDB7E7
:1007E000DEB76C97DEBFCDBF1092E9008091E800C4
:1007F00083FFEDC168E0CE0145960E944C0182EF77
:100800008093E8008D8987FF05C09091E80090FFF4
:10081000FCCF03C09EEF9093E800982F907609F0EC
:10082000C6C09E892F89188D91110CC0803829F47B
:100830008091F3018093F10002C01092F1001092B8
:10084000F10048C1422F50E0512B913051F48111F9
:1008500041C14130510509F03DC18091F3018D7FC7
:100860000BC0933061F4811135C14130510509F05D
:1008700031C18091F30182608093F3012BC19530E7
:1008800041F48091E80080FFFCCF20682093E300D2
:1008900021C1963009F05FC0EB8CFC8C1092E9000E
:1008A0001092F1011092F001123091F51092EF01C7
:1008B0001092EE010E94C30199E0BE016F5F7F4F6D
:1008C000DB01E92F1D92EA95E9F799831A8391E0FC
:1008D0009E8390EA98879AEF99872091F001309152
:1008E000F101275F3F4F3C832B838D831092E900FA
:1008F0001092F1011092F001F092EF01E092EE01FE
:1009000049E050E080E00E9425010E94C301E2C05E
:10091000F092EF01E092EE010E944407DC01129692
:10092000ED90FC901397E114F10409F4C0C0D701D5
:10093000ED91FC910480F581E02DBE016B5E7F4F4F
:10094000C7010995009719F00CF0C4C0C7C0F701A2
:10095000E084F184E8CF973009F4C0C0983021F4E6
:1009600081E08093F100B6C0993009F0B3C0837084
:1009700009F0B4C0EFE1F1E081E021E036E39081DD
:10098000992361F08093E9002093EB00919190937B
:10099000EC003093ED008F5F873089F78EE780930E
:1009A000EA001092EA008F898093F70193C08B8D43
:1009B0009C8D1092E9001092F1011092F001909339
:1009C000EF018093EE01898D811156C08E899D893A
:1009D000913A59F4813209F081C047E050E064E077
:1009E00071E080E00E94250175C0913209F076C067
:1009F000833289F4888D90E0982F88272F89822B65
:100A0000A0E0B0E08093000190930101A093020167
:100A1000B09303015FC0803269F48091E80082FFE7
:100A2000FCCF67E084E091E00E944C018BEF809363
:100A3000E80006C0823209F04DC08F8980930B0117
:100A40008091F201882319F0EEEFFAE002C0E0E0B5
:100A5000F8E08091040190910501A0910601B09108
:100A60000701803B9440A105B10509F07BC080914E
:100A70000B0180FF93C076C00E944407DC011296F0
:100A80000D911C9113970115110541F1D801ED91BC
:100A9000FC910190F081E02DBE016B5E7F4FC8019B
:100AA0000995811117C0F80100851185ECCF11302F
:100AB00009F44EC0133091F48F89882309F445C09E
:100AC000823081F440E86BE080E191E00E94E80030
:100AD000882321F08EEF8093E80079C081E2809333
:100AE000EB0075C0813029F440E86BE084E091E0D0
:100AF000EDCF833099F70E944407DC011296ED9008
:100B0000FC9013978E010F5F1F4F6801E114F104F1
:100B100079F0D701ED91FC910680F781E02DB801C5
:100B2000C7010995080F111DF701E084F184EECF8C
:100B3000D8011C92F60101900020E9F73197BF011E
:100B40006C197D0940E0C601C1CF6EEE70E002C0B5
:100B500062EF70E06115710509F2FB01449150E00C
:100B600080E840CF0FB6F894A89580916000886126
:100B700080936000109260000FBEA895EE3F2AE0BF
:100B8000F20739F08091FE0A9091FF0A91838083E9
:100B9000A1CF1092FF0A1092FE0A9CCFEE3F8AE08E
:100BA000F80731F0808191819093FF0A8093FE0ACB
:100BB00087E797E7918380839BE088E10FB6F894FD
:100BC000A895809360000FBE9093600083CF6C96D1
:100BD0000FB6F894DEBF0FBECDBFDF91CF91FF916E
:100BE000EF91BF91AF919F918F917F916F915F91A5
:100BF0004F913F912F911F910F91FF90EF90DF90B8
:100C0000CF900F900FBE0F901F901895CF92DF924C
:100C1000EF92FF920F931F93CF93DF938C017B0191
:100C20006CEE71E00E945309E8012696680182E4A7
:100C3000C80ED11C6CEE71E0CE010E9453092696BD
:100C4000CC15DD05B9F7B701C8010E947A081982F1
:100C50001882DF91CF911F910F91FF90EF90DF905D
:100C6000CF9008953FB7F8948091880390918903BD
:100C7000A0918A03B0918B0326B5A89B05C02F3F96
:100C800019F00196A11DB11D3FBFBA2FA92F982FB2
:100C90008827820F911DA11DB11DBC01CD0142E02D
:100CA000660F771F881F991F4A95D1F708950E94F4
:100CB000650F0F931F93CF93DF93EC018881998188
:100CC000009729F02A813B812617370788F48B018A
:100CD0006F5F7F4F0E949B0E009761F0998388831E
:100CE0001B830A832C813D81232B11F4FC0110828C
:100CF00081E001C080E0DF91CF911F910F910895B5
:100D0000BC01009791F0FC0101900020E9F73197B8
:100D1000AF01481B590BE091F801F091F9010280F5
:100D2000F381E02D88EF91E0099480E090E0089550
:100D3000CF93DF930E948006EC018AEE91E00E943F
:100D400080068C0F9D1FDF91CF910895CF93DF9385
:100D5000E091F801F091F901DC0114964D915C915C
:100D600015976D917C910280F381E02D88EF91E0E1
:100D70000995EC018AEE91E00E9480068C0F9D1F80
:100D8000DF91CF9108952FB7F894809198039091B7
:100D90009903A0919A03B0919B032FBF8093000207
:100DA00090930102A0930202B0930302E091F80134
:100DB000F091F9010284F385E02D88EF91E0099527
:100DC00097FF26C02FB7F8948091980390919903CC
:100DD000A0919A03B0919B032FBF409100025091C4
:100DE00001026091020270910302841B950BA60B15
:100DF000B70B4091FC015091FD016091FE01709193
:100E0000FF0184179507A607B70780F28FEF9FEFC2
:100E10000895FC018091F701811103C08FEF9FEFCE
:100E200008959FB7F89482E08093E9002091F20042
:100E300030E01216130614F421E030E021153105DC
:100E400059F0289884E68093F6018091F100808320
:100E50008091F200882319F09FBFC90108958BE6A5
:100E60008093E800F9CF2FB7F89483E08093E900EE
:100E70009091E800892F807295FF04C09091F20054
:100E800080E4891B2FBF08958091900381110DC0CC
:100E900082E080938C0384E080938D0310928F0313
:100EA00010928E0381E0809390038CE893E0089584
:100EB0008F929F92AF92BF92CF92DF92EF92FF926A
:100EC0006B017C010E9432064B015C01C114D1040C
:100ED000E104F104F1F00E943206DC01CB01881933
:100EE0009909AA09BB09883E9340A105B10570F391
:100EF00021E0C21AD108E108F10888EE880E83E0EB
:100F0000981EA11CB11CC114D104E104F10419F70D
:100F1000DDCFFF90EF90DF90CF90BF90AF909F908C
:100F20008F9008951F920F920FB60F9211242F9356
:100F30003F938F939F93AF93BF938091980390912A
:100F40009903A0919A03B0919B033091870323E00A
:100F5000230F2D3720F40196A11DB11D05C026E8F1
:100F6000230F0296A11DB11D209387038093980340
:100F700090939903A0939A03B0939B038091880365
:100F800090918903A0918A03B0918B030196A11DD2
:100F9000B11D8093880390938903A0938A03B09333
:100FA0008B03BF91AF919F918F913F912F910F90A4
:100FB0000FBE0F901F901895FC01808191810097C2
:100FC00011F00C94F50C60E070E0CB010895FC0189
:100FD00024813581232B31F421E061157105A1F0C5
:100FE000FB0108C0FC01808191816115710531F41C
:100FF00021E0FC018081882339F005C00E94730F35
:1010000021E0892B09F020E0822F0895EF92FF92D2
:101010000F931F93CF93DF93FC01248135816115DA
:10102000710511F480E019C041155105A9F07B014B
:10103000EC018A01020F131FB8010E945906882390
:1010400089F3288139818C819D81B701820F931F9B
:101050000E947C0F1D830C8381E0DF91CF911F9153
:101060000F91FF90EF900895CF93DF9300D0CDB70D
:10107000DEB769831A8241E050E0BE016F5F7F4FA7
:101080000E9406080F900F90DF91CF910895CF93A3
:10109000DF93EC0188819981009711F00E94030E83
:1010A000198218821D821C821B821A82DF91CF91C5
:1010B0000895EF92FF920F931F93CF93DF93EC016C
:1010C0007B018A01BA010E945906811104C0CE0138
:1010D0000E94470807C01D830C83B701888199814E
:1010E0000E947C0FCE01DF91CF911F910F91FF9055
:1010F000EF900895CF93DF93EC01FB0186179707DC
:1011000061F0608171816115710529F0448155811B
:101110000E94590802C00E944708CE01DF91CF917A
:101120000895FC01808191810C94030EFC011182D1
:10113000108213821282158214820C947A088F9284
:101140009F92AF92BF92CF92DF92EF92FF920F9356
:101150001F93CF93DF9300D000D000D0CDB7DEB780
:10116000BC01CE0101960E949608A0903F03B0906A
:1011700040038D809E80E980FA8038E4C32E32E0FF
:10118000D32E00E010E00A151B0504F5F601868158
:10119000978188159905A1F482819381009709F4BC
:1011A00060C0E114F10439F48114910489F0FC0168
:1011B000808190E003C0B7010E94730F892B41F03A
:1011C0000F5F1F4FFEE0CF0ED11CDDCF0FEF1FEFE3
:1011D000CE0101960E9491080F3F8FEF180709F486
:1011E0004FC080913F039091400301972EE0D22E93
:1011F000D89EB001D99E700D1124665B7D4FD09EA4
:101200007001D19EF00C1124C701865B9D4F0E9496
:101210007A0880913F03909140030197D89ED001B6
:10122000D99EB00D1124A85BBD4F18962D913C910D
:101230001997F701E85BFD4F318720871A962C91AB
:101240001A9722871B962C911B9723871C962D910A
:101250003C911D97358724879093400380933F03EB
:101260000FC0E114F10409F4B3CF8114910409F41F
:10127000AFCFF701808190E09195819591099ECF44
:1012800026960FB6F894DEBF0FBECDBFDF91CF918B
:101290001F910F91FF90EF90DF90CF90BF90AF9094
:1012A0009F908F900895FC01118210821382128208
:1012B000158214826115710551F0FB010190002027
:1012C000E9F73197AF01461B570B0C945908089565
:1012D000CF92DF92EF92FF920F931F93CF93DF9302
:1012E000CDB7DEB762970FB6F894DEBF0FBECDBFA5
:1012F0006C016CEE71E0CE010D960E9453096CEE0C
:1013000071E0CE0107960E94530910928603109255
:101310008503E12CF12C20E030E006E0F601848129
:101320009581E816F90608F074C0F60140815181F4
:101330004115510529F1FA01EE0DFF1D10812130F3
:10134000310511F12230310539F12115310509F04E
:101350005CC0183269F4BE01695F7F4F83E493E09B
:101360000E947A0843C02115310509F04EC010E0F3
:10137000612FCE0107960E94340820E030E045C07E
:1013800021303105B1F510E040E050E06CEE71E045
:10139000CE010D960E9459081C3211F0193271F5D8
:1013A000BE01635F7F4FCE0101960E949608209197
:1013B0008503309186032F5F3F4F029FC001039F3B
:1013C000900D1124BE016F5F7F4F8D5B9C4F0E947B
:1013D0007A08809185039091860301969093860305
:1013E00080938503CE0101960E94910821E030E0B0
:1013F0000CC02230310509F0B6CF10E0612FCE01CC
:101400000D960E94340822E030E0FFEFEF1AFF0A49
:1014100085CFCE0107960E949108CE010D960E94BD
:10142000910862960FB6F894DEBF0FBECDBFDF9174
:10143000CF911F910F91FF90EF90DF90CF90089583
:10144000CF93DF93CDB7DEB764970FB6F894DEBFC6
:101450000FBECDBF789484B5826084BD84B58160B1
:1014600084BD85B5826085BD85B5816085BD80916F
:101470006E00816080936E001092810080918100E7
:1014800082608093810080918100816080938100DF
:1014900080918000816080938000809191008260C3
:1014A0008093910080919100816080939100809160
:1014B00090008160809390008091C100846080934F
:1014C000C1008091C10082608093C1008091C10001
:1014D00081608093C1008091C30081608093C300CC
:1014E0008091C00082608093C0008091C2008160C2
:1014F0008093C20080917A00846080937A0080910A
:101500007A00826080937A0080917A008160809373
:101510007A0080917A00806880937A001092F701B7
:101520001092F3011092F4018091D70081608093B2
:10153000D70080EA8093D80089B5806189BD89B5DC
:10154000826089BD09B400FEFDCF61E070E080E0FB
:1015500090E00E9458078091D8008F7C8061809332
:10156000D8008091E000807F8093E0008091E100CE
:101570008E7E8093E1008DE08093E200559A209A60
:10158000EEEFFFE7859194918B3F9C4D19F481E03C
:101590008093F2018FEF9FEF9093050280930402F6
:1015A00068EE73E080E090E00E94580788E791E0E1
:1015B0000E9498064BE3E42E41E0F42E50E0C52E45
:1015C00050E0D52E88EF91E00E94A501892B09F407
:1015D0004FC184E891E00E9498066CEE71E0CE0164
:1015E00001960E9453090E94C30697FD06C0682F0A
:1015F000CE0101960E943408F6CFCE0101960E94DA
:101600006809CE0101960E9491086DE971E0CE0152
:1016100001960E94530940914703509148036091FD
:10162000430370914403CE0101960E940608811184
:1016300004C0CE0101960E944708CE0101960E9487
:10164000A606CE0101960E9491088AEA91E00E94C6
:10165000800639E4A32E33E0B32E00E010E0809141
:1016600085039091860308171907D4F50197081789
:1016700019072CF025E7822E21E0922E04C093E773
:10168000892E91E0992EB501CE0101960E9496080F
:10169000F40101900020E9F73197AF014819590989
:1016A000B401CE0101960E940608882309F4E7C020
:1016B000E091F801F091F9014D815E8169817A81B3
:1016C0000280F381E02D88EF91E00995CE0101962B
:1016D0000E9491080F5F1F4F86E0A80EB11CBFCF7C
:1016E00061EB71E083E493E00E94E707882339F11E
:1016F00081E693E00E94DC072B013C0163EC71E082
:1017000085E593E00E94E707182F8FE493E00E949D
:10171000DC074B015C0169E473E0CE010F960E9487
:10172000960821E0111101C020E08201A401BE0150
:10173000615F7F4FCE0101960E9401022FC065ECD0
:1017400071E083E493E00E94E707882309F45CC01A
:1017500081E693E00E94DC072B013C0163EC71E021
:1017600085E593E00E94E707182F8FE493E00E943D
:10177000DC074B015C0169E473E0CE010F960E9427
:10178000960821E0111101C020E08201A401BE01F0
:10179000615F7F4FCE0101960E944D02CE010F96F0
:1017A0000E94910820913F03309140031EE0129F58
:1017B000C001139F900D1124BE016D5F7F4F865BAA
:1017C0009D4F0E947A0880913F0390914003189F9B
:1017D000F001199FF00D1124E85BFD4F29853A8532
:1017E000318720872B8522872C8523872D853E8571
:1017F0003587248701969093400380933F03FA82B4
:10180000E982CE01039632C06EEC71E083E493E08E
:101810000E94E7078823B1F08AE4A82E82E0B82E60
:1018200000E010E080913F039091400308171907F2
:10183000FCF4C5010E94A6060F5F1F4F2EE0A20E0A
:10184000B11CF0CF6CED71E083E493E00E94E707F8
:10185000882371F069E473E0CE0101960E94960836
:10186000CE0101960E949F08CE0101960E94910828
:10187000C114D10409F4A6CE0E9400009BCECE0173
:1018800001960E94470814CF0F931F93CF93DF93C5
:10189000CEEFD2E00BE311E02E97FE0101931193FE
:1018A000CF010E949108F2E0C834DF07A9F789E46C
:1018B00093E0892B51F0CFE7D3E0CE010E9491084D
:1018C000269783E0C334D807C1F783E493E0DF9120
:1018D000CF911F910F910C9491088F929F92AF928C
:1018E000BF92CF92DF92EF92FF920F931F93CF930D
:1018F000DF9300D000D000D0CDB7DEB71092FB014F
:101900001092FA0188EE93E0A0E0B0E08093FC0131
:101910009093FD01A093FE01B093FF0189E291E055
:101920009093F9018093F8018FEF9FEF9093050258
:10193000809304026CEE71E0CE0101960E9453097F
:10194000BE016F5F7F4F83E493E00E940606CE01E5
:1019500001960E94910808E412E0E12CF12C8BE33F
:10196000882E81E0982EAA24AA94BA2CF80181929C
:1019700091926F016CEE71E0CF010E94530940E03B
:1019800050E06CEE71E0C6010E945908F801B18682
:10199000A086F701E85BFD4F12861386F8011586D5
:1019A0001486FEE0EF0EF11C025F1F4F86EBE81677
:1019B000F104E1F61092400310923F0310924203AB
:1019C0001092410326960FB6F894DEBF0FBECDBF2E
:1019D000DF91CF911F910F91FF90EF90DF90CF900B
:1019E000BF90AF909F908F9008951F93FC0199270F
:1019F0008827BC01E89411911032E9F3193010F0F6
:101A00001E30C8F31B3251F01D3249F4689406C0F1
:101A10000E941C0D610F711D811D911D11911053AC
:101A20001A30B0F33EF490958095709561957F4F94
:101A30008F4F9F4F1F910895592F482F372F262FD3
:101A4000660F771F881F991F660F771F881F991FC2
:101A5000620F731F841F951F660F771F881F991FC2
:101A600008952F923F924F925F926F927F928F9242
:101A70009F92AF92BF92CF92DF92EF92FF920F931D
:101A80001F93CF93DF93CDB7DEB7CA1BDB0B0FB627
:101A9000F894DEBF0FBECDBF09942A8839884888E4
:101AA0005F846E847D848C849B84AA84B984C8847A
:101AB000DF80EE80FD800C811B81AA81B981CE0F71
:101AC000D11D0FB6F894DEBF0FBECDBFED01089556
:101AD000EE0FFF1F0590F491E02D0994CF93DF9353
:101AE0008230910510F482E090E0E0919E03F09145
:101AF0009F0320E030E0C0E0D0E0309711F140815A
:101B0000518148175907C0F04817590761F482817D
:101B10009381209719F09B838A832BC090939F0316
:101B200080939E0326C02115310519F042175307F3
:101B300018F49A01BE01DF01EF010280F381E02D6C
:101B4000DCCF2115310509F1281B390B2430310573
:101B500090F412968D919C9113976115710521F067
:101B6000FB019383828304C090939F0380939E0321
:101B7000FD01329644C0FD01E20FF31F8193919362
:101B8000225031092D933C933AC020919C0330910F
:101B90009D03232B41F420910E0130910F013093CE
:101BA0009D0320939C0320910C0130910D01211580
:101BB000310541F42DB73EB740911001509111010C
:101BC000241B350BE0919C03F0919D03E217F30772
:101BD000A0F42E1B3F0B2817390778F0AC014E5F9D
:101BE0005F4F2417350748F04E0F5F1F50939D033A
:101BF00040939C038193919302C0E0E0F0E0CF0119
:101C0000DF91CF9108950F931F93CF93DF930097A8
:101C100009F48CC0FC0132971382128200919E035A
:101C200010919F030115110581F420813181820FEC
:101C3000931F20919C0330919D032817390779F554
:101C4000F0939D03E0939C0371C0D80140E050E005
:101C5000AE17BF0750F412962D913C911397AD012A
:101C60002115310509F1D901F3CF9D01DA01338343
:101C7000228360817181860F971F8217930769F411
:101C8000EC0128813981260F371F2E5F3F4F3183AA
:101C900020838A819B8193838283452B29F4F0934F
:101CA0009F03E0939E0342C01396FC93EE9312971A
:101CB000ED01499159919E01240F351FE217F30759
:101CC00071F480819181840F951F029611969C93E7
:101CD0008E938281938113969C938E931297E0E06A
:101CE000F0E0D80112968D919C911397009719F00E
:101CF000F8018C01F6CF8D919C9198012E5F3F4F9A
:101D0000820F931F20919C0330919D032817390760
:101D100069F4309729F410929F0310929E0302C039
:101D20001382128210939D0300939C03DF91CF9145
:101D30001F910F910895A0E0B0E0E1EAFEE00C945D
:101D4000350DEC01009721F4CB010E946E0DB8C057
:101D5000FC01E60FF71F9C0122503109E217F3073F
:101D600008F4ACC0D9010D911C9111970617170703
:101D7000B0F00530110508F49FC0C801049786171C
:101D8000970708F499C002501109061B170B01931D
:101D900011936D937C93CF010E94030E8DC05B0164
:101DA000A01AB10A4C01800E911EA0919E03B09121
:101DB0009F0340E050E0E12CF12C109709F44AC059
:101DC000A815B905D1F56D907C901197630182E05B
:101DD000C80ED11CCA14DB0480F1A3014A195B09A7
:101DE0006A0182E0C80ED11C1296BC90129713961D
:101DF000AC91B5E0CB16D10440F0B282A3835183FD
:101E00004083D9016D937C930AC00E5F1F4FC301BD
:101E1000800F911FF90191838083EB2DFA2FE1143C
:101E2000F10431F0D7011396FC93EE93129744C05E
:101E3000F0939F03E0939E033FC08D919C91119777
:101E40004817590708F4AC017D0112960D90BC911A
:101E5000A02DB3CF80919C0390919D038815990587
:101E6000E1F446175707C8F480910C0190910D01D9
:101E7000009741F48DB79EB7409110015091110128
:101E8000841B950BE817F907C8F4F0939D03E093C2
:101E90009C03F901718360830FC0CB010E946E0D1A
:101EA0007C01009759F0A801BE010E946A0FCE0183
:101EB0000E94030EC70104C0CE0102C080E090E082
:101EC000CDB7DEB7EEE00C94510D81E090E0F894D0
:101ED0000C94830FFB01DC0102C001900D92415074
:101EE0005040D8F70895FB01DC018D9101908019D5
:101EF0000110D9F3990B0895FB01DC0101900D92BB
:101F00000020E1F7089510E0CFE8D0E004C0FE0122
:101F10000E94680D2196C039D107C9F7F894FFCF08
:101F2000FFFFFFFF00E10000000000000000A00331
:101F3000800000000000F90100000000F50100C170
:101F4000808100000000000000840199021E039AB5
:101F500001A5012203400300000000FD014174754A
:101F6000616E646F2041747561646F7220446967AB
:101F70006974616C00417475616E646F20536572A1
:101F8000766F004DC3A9746F646F207669727475A3
:101F9000616C002C003B0A005374617274696E67B7
:101FA0002E2E2E00496E74657270726574616E64B7
:101FB0006F20636F6D616E646F2E2E2E00456E6311
:101FC0006F6E747261646F3A2000417267733A20D9
:101FD0000061646441747561646F72446967697417
:101FE000616C003100616464536572766F006C69E6
:101FF000737441747561646F7265730072656D6F9F
:0E200000766541747561646F72000D0A000010
:00000001FF
